{
  "contractName": "ContractUsedLibraryString",
  "abi": [
    {
      "constant": true,
      "inputs": [],
      "name": "str",
      "outputs": [
        {
          "internalType": "string",
          "name": "",
          "type": "string"
        }
      ],
      "payable": false,
      "stateMutability": "view",
      "type": "function"
    },
    {
      "constant": false,
      "inputs": [
        {
          "internalType": "string",
          "name": "a",
          "type": "string"
        },
        {
          "internalType": "string",
          "name": "b",
          "type": "string"
        }
      ],
      "name": "concatAssembly",
      "outputs": [],
      "payable": false,
      "stateMutability": "nonpayable",
      "type": "function"
    },
    {
      "constant": false,
      "inputs": [
        {
          "internalType": "string",
          "name": "a",
          "type": "string"
        },
        {
          "internalType": "string",
          "name": "b",
          "type": "string"
        }
      ],
      "name": "concatNonAssembly",
      "outputs": [],
      "payable": false,
      "stateMutability": "nonpayable",
      "type": "function"
    }
  ],
  "bytecode": "0x608060405234801561001057600080fd5b50610853806100206000396000f3fe608060405234801561001057600080fd5b50600436106100415760003560e01c8063071f1aab14610046578063700a84be14610198578063c15bae84146102ea575b600080fd5b6101966004803603604081101561005c57600080fd5b810190808035906020019064010000000081111561007957600080fd5b82018360208201111561008b57600080fd5b803590602001918460018302840111640100000000831117156100ad57600080fd5b91908080601f016020809104026020016040519081016040528093929190818152602001838380828437600081840152601f19601f8201169050808301925050505050505091929192908035906020019064010000000081111561011057600080fd5b82018360208201111561012257600080fd5b8035906020019184600183028401116401000000008311171561014457600080fd5b91908080601f016020809104026020016040519081016040528093929190818152602001838380828437600081840152601f19601f82011690508083019250505050505050919291929050505061036d565b005b6102e8600480360360408110156101ae57600080fd5b81019080803590602001906401000000008111156101cb57600080fd5b8201836020820111156101dd57600080fd5b803590602001918460018302840111640100000000831117156101ff57600080fd5b91908080601f016020809104026020016040519081016040528093929190818152602001838380828437600081840152601f19601f8201169050808301925050505050505091929192908035906020019064010000000081111561026257600080fd5b82018360208201111561027457600080fd5b8035906020019184600183028401116401000000008311171561029657600080fd5b91908080601f016020809104026020016040519081016040528093929190818152602001838380828437600081840152601f19601f82011690508083019250505050505050919291929050505061042b565b005b6102f261067d565b6040518080602001828103825283818151815260200191508051906020019080838360005b83811015610332578082015181840152602081019050610317565b50505050905090810190601f16801561035f5780820380516001836020036101000a031916815260200191505b509250505060405180910390f35b61041160008054600181600116156101000203166002900480601f0160208091040260200160405190810160405280929190818152602001828054600181600116156101000203166002900480156104065780601f106103db57610100808354040283529160200191610406565b820191906000526020600020905b8154815290600101906020018083116103e957829003601f168201915b50505050508361071b565b60009080519060200190610426929190610779565b505050565b73__libraryStringNonAssembly______________6389c19ddb6000846040518363ffffffff1660e01b81526004018080602001806020018381038352858181546001816001161561010002031660029004815260200191508054600181600116156101000203166002900480156104e45780601f106104b9576101008083540402835291602001916104e4565b820191906000526020600020905b8154815290600101906020018083116104c757829003601f168201915b5050838103825284818151815260200191508051906020019080838360005b8381101561051e578082015181840152602081019050610503565b50505050905090810190601f16801561054b5780820380516001836020036101000a031916815260200191505b5094505050505060006040518083038186803b15801561056a57600080fd5b505af415801561057e573d6000803e3d6000fd5b505050506040513d6000823e3d601f19601f8201168201806040525060208110156105a857600080fd5b81019080805160405193929190846401000000008211156105c857600080fd5b838201915060208201858111156105de57600080fd5b82518660018202830111640100000000821117156105fb57600080fd5b8083526020830192505050908051906020019080838360005b8381101561062f578082015181840152602081019050610614565b50505050905090810190601f16801561065c5780820380516001836020036101000a031916815260200191505b5060405250505060009080519060200190610678929190610779565b505050565b60008054600181600116156101000203166002900480601f0160208091040260200160405190810160405280929190818152602001828054600181600116156101000203166002900480156107135780601f106106e857610100808354040283529160200191610713565b820191906000526020600020905b8154815290600101906020018083116106f657829003601f168201915b505050505081565b606061073f565b6000604080519150601f19601f6020850101168201815250919050565b8151835101602081111561075257600080fd5b61075b81610722565b915080825260e05184516008021c60a0510160208301525092915050565b828054600181600116156101000203166002900490600052602060002090601f016020900481019282601f106107ba57805160ff19168380011785556107e8565b828001600101855582156107e8579182015b828111156107e75782518255916020019190600101906107cc565b5b5090506107f591906107f9565b5090565b61081b91905b808211156108175760008160009055506001016107ff565b5090565b9056fea265627a7a72315820febe5ebd57ca65589c7d54517d5a2e72be91e5d3d2640814dac2474d1e20cc3c64736f6c63430005100032",
  "source": "pragma solidity ^0.5.16;\nimport \"./libraryString.sol\";\nimport \"./libraryStringNonAssembly.sol\";\n\n\ncontract ContractUsedLibraryString {\n    string public str;\n\n    function concatAssembly(string memory a, string memory b) public {\n        str = libraryString.concat(str, a);\n    }\n\n    function concatNonAssembly(string memory a, string memory b) public {\n        str = libraryStringNonAssembly.concat(str, a);\n    }\n}\n",
  "sourcePath": "/home/leo/Documents/BlockChain_Development/Advanced_Smart_Contract/stringLibrary/contracts/Contract.sol",
  "compiler": {
    "name": "solc",
    "version": "0.5.16+commit.9c3226ce.Emscripten.clang"
  },
  "schemaVersion": "3.0.23",
  "updatedAt": "2020-03-28T21:00:34.420Z",
  "devdoc": {
    "methods": {}
  },
  "userdoc": {
    "methods": {}
  }
}