{
  "contractName": "Contract",
  "abi": [
    {
      "constant": true,
      "inputs": [],
      "name": "str",
      "outputs": [
        {
          "internalType": "string",
          "name": "",
          "type": "string"
        }
      ],
      "payable": false,
      "stateMutability": "view",
      "type": "function"
    },
    {
      "constant": true,
      "inputs": [],
      "name": "strLength",
      "outputs": [
        {
          "internalType": "uint256",
          "name": "",
          "type": "uint256"
        }
      ],
      "payable": false,
      "stateMutability": "view",
      "type": "function"
    },
    {
      "constant": false,
      "inputs": [
        {
          "internalType": "string",
          "name": "a",
          "type": "string"
        },
        {
          "internalType": "string",
          "name": "b",
          "type": "string"
        }
      ],
      "name": "concatAssembly",
      "outputs": [],
      "payable": false,
      "stateMutability": "nonpayable",
      "type": "function"
    },
    {
      "constant": false,
      "inputs": [
        {
          "internalType": "string",
          "name": "a",
          "type": "string"
        },
        {
          "internalType": "string",
          "name": "b",
          "type": "string"
        }
      ],
      "name": "concatNonAssembly",
      "outputs": [],
      "payable": false,
      "stateMutability": "nonpayable",
      "type": "function"
    },
    {
      "constant": false,
      "inputs": [
        {
          "internalType": "string",
          "name": "a",
          "type": "string"
        },
        {
          "internalType": "uint256",
          "name": "index",
          "type": "uint256"
        }
      ],
      "name": "charAtAssembly",
      "outputs": [],
      "payable": false,
      "stateMutability": "nonpayable",
      "type": "function"
    },
    {
      "constant": false,
      "inputs": [
        {
          "internalType": "string",
          "name": "a",
          "type": "string"
        },
        {
          "internalType": "uint256",
          "name": "index",
          "type": "uint256"
        }
      ],
      "name": "charAtNonAssembly",
      "outputs": [],
      "payable": false,
      "stateMutability": "nonpayable",
      "type": "function"
    },
    {
      "constant": false,
      "inputs": [
        {
          "internalType": "string",
          "name": "a",
          "type": "string"
        },
        {
          "internalType": "uint256",
          "name": "index",
          "type": "uint256"
        }
      ],
      "name": "sliceAssembly",
      "outputs": [],
      "payable": false,
      "stateMutability": "nonpayable",
      "type": "function"
    },
    {
      "constant": false,
      "inputs": [
        {
          "internalType": "string",
          "name": "a",
          "type": "string"
        },
        {
          "internalType": "uint256",
          "name": "startIndex",
          "type": "uint256"
        },
        {
          "internalType": "uint256",
          "name": "endIndex",
          "type": "uint256"
        }
      ],
      "name": "sliceAssembly",
      "outputs": [],
      "payable": false,
      "stateMutability": "nonpayable",
      "type": "function"
    },
    {
      "constant": false,
      "inputs": [
        {
          "internalType": "string",
          "name": "a",
          "type": "string"
        },
        {
          "internalType": "uint256",
          "name": "startIndex",
          "type": "uint256"
        },
        {
          "internalType": "uint256",
          "name": "endIndex",
          "type": "uint256"
        }
      ],
      "name": "sliceNonAssembly",
      "outputs": [],
      "payable": false,
      "stateMutability": "nonpayable",
      "type": "function"
    },
    {
      "constant": false,
      "inputs": [
        {
          "internalType": "string",
          "name": "a",
          "type": "string"
        },
        {
          "internalType": "uint256",
          "name": "index",
          "type": "uint256"
        }
      ],
      "name": "sliceNonAssembly",
      "outputs": [],
      "payable": false,
      "stateMutability": "nonpayable",
      "type": "function"
    },
    {
      "constant": false,
      "inputs": [
        {
          "internalType": "string",
          "name": "a",
          "type": "string"
        }
      ],
      "name": "lengthAssembly",
      "outputs": [],
      "payable": false,
      "stateMutability": "nonpayable",
      "type": "function"
    },
    {
      "constant": false,
      "inputs": [
        {
          "internalType": "string",
          "name": "a",
          "type": "string"
        }
      ],
      "name": "lengthNonAssembly",
      "outputs": [],
      "payable": false,
      "stateMutability": "nonpayable",
      "type": "function"
    },
    {
      "constant": true,
      "inputs": [
        {
          "internalType": "string",
          "name": "a",
          "type": "string"
        },
        {
          "internalType": "string",
          "name": "b",
          "type": "string"
        }
      ],
      "name": "matchAssembly",
      "outputs": [
        {
          "internalType": "bool",
          "name": "",
          "type": "bool"
        }
      ],
      "payable": false,
      "stateMutability": "pure",
      "type": "function"
    },
    {
      "constant": true,
      "inputs": [
        {
          "internalType": "string",
          "name": "a",
          "type": "string"
        },
        {
          "internalType": "string",
          "name": "b",
          "type": "string"
        }
      ],
      "name": "matchNonAssembly",
      "outputs": [
        {
          "internalType": "bool",
          "name": "",
          "type": "bool"
        }
      ],
      "payable": false,
      "stateMutability": "pure",
      "type": "function"
    }
  ],
  "bytecode": "0x608060405234801561001057600080fd5b506122be806100206000396000f3fe608060405234801561001057600080fd5b50600436106100ea5760003560e01c80637c685c021161008c578063c15bae8411610066578063c15bae8414610b0f578063d0758b1e14610b92578063d6d0332114610c4d578063f395072514610d12576100ea565b80637c685c021461081b5780639f00779e14610985578063aba91e5c14610a4a576100ea565b8063356af8a1116100c8578063356af8a11461047a5780636b30f65614610549578063700a84be1461060e5780637b3d473714610760576100ea565b8063071f1aab146100ef57806320aedee6146102415780632b64cc13146103ab575b600080fd5b61023f6004803603604081101561010557600080fd5b810190808035906020019064010000000081111561012257600080fd5b82018360208201111561013457600080fd5b8035906020019184600183028401116401000000008311171561015657600080fd5b91908080601f016020809104026020016040519081016040528093929190818152602001838380828437600081840152601f19601f820116905080830192505050505050509192919290803590602001906401000000008111156101b957600080fd5b8201836020820111156101cb57600080fd5b803590602001918460018302840111640100000000831117156101ed57600080fd5b91908080601f016020809104026020016040519081016040528093929190818152602001838380828437600081840152601f19601f820116905080830192505050505050509192919290505050610d30565b005b6103916004803603604081101561025757600080fd5b810190808035906020019064010000000081111561027457600080fd5b82018360208201111561028657600080fd5b803590602001918460018302840111640100000000831117156102a857600080fd5b91908080601f016020809104026020016040519081016040528093929190818152602001838380828437600081840152601f19601f8201169050808301925050505050505091929192908035906020019064010000000081111561030b57600080fd5b82018360208201111561031d57600080fd5b8035906020019184600183028401116401000000008311171561033f57600080fd5b91908080601f016020809104026020016040519081016040528093929190818152602001838380828437600081840152601f19601f820116905080830192505050505050509192919290505050610f64565b604051808215151515815260200191505060405180910390f35b610478600480360360608110156103c157600080fd5b81019080803590602001906401000000008111156103de57600080fd5b8201836020820111156103f057600080fd5b8035906020019184600183028401116401000000008311171561041257600080fd5b91908080601f016020809104026020016040519081016040528093929190818152602001838380828437600081840152601f19601f82011690508083019250505050505050919291929080359060200190929190803590602001909291905050506110ca565b005b6105476004803603606081101561049057600080fd5b81019080803590602001906401000000008111156104ad57600080fd5b8201836020820111156104bf57600080fd5b803590602001918460018302840111640100000000831117156104e157600080fd5b91908080601f016020809104026020016040519081016040528093929190818152602001838380828437600081840152601f19601f82011690508083019250505050505050919291929080359060200190929190803590602001909291905050506112a2565b005b61060c6004803603604081101561055f57600080fd5b810190808035906020019064010000000081111561057c57600080fd5b82018360208201111561058e57600080fd5b803590602001918460018302840111640100000000831117156105b057600080fd5b91908080601f016020809104026020016040519081016040528093929190818152602001838380828437600081840152601f19601f8201169050808301925050505050505091929192908035906020019092919050505061147a565b005b61075e6004803603604081101561062457600080fd5b810190808035906020019064010000000081111561064157600080fd5b82018360208201111561065357600080fd5b8035906020019184600183028401116401000000008311171561067557600080fd5b91908080601f016020809104026020016040519081016040528093929190818152602001838380828437600081840152601f19601f820116905080830192505050505050509192919290803590602001906401000000008111156106d857600080fd5b8201836020820111156106ea57600080fd5b8035906020019184600183028401116401000000008311171561070c57600080fd5b91908080601f016020809104026020016040519081016040528093929190818152602001838380828437600081840152601f19601f820116905080830192505050505050509192919290505050611649565b005b6108196004803603602081101561077657600080fd5b810190808035906020019064010000000081111561079357600080fd5b8201836020820111156107a557600080fd5b803590602001918460018302840111640100000000831117156107c757600080fd5b91908080601f016020809104026020016040519081016040528093929190818152602001838380828437600081840152601f19601f82011690508083019250505050505050919291929050505061187d565b005b61096b6004803603604081101561083157600080fd5b810190808035906020019064010000000081111561084e57600080fd5b82018360208201111561086057600080fd5b8035906020019184600183028401116401000000008311171561088257600080fd5b91908080601f016020809104026020016040519081016040528093929190818152602001838380828437600081840152601f19601f820116905080830192505050505050509192919290803590602001906401000000008111156108e557600080fd5b8201836020820111156108f757600080fd5b8035906020019184600183028401116401000000008311171561091957600080fd5b91908080601f016020809104026020016040519081016040528093929190818152602001838380828437600081840152601f19601f820116905080830192505050505050509192919290505050611975565b604051808215151515815260200191505060405180910390f35b610a486004803603604081101561099b57600080fd5b81019080803590602001906401000000008111156109b857600080fd5b8201836020820111156109ca57600080fd5b803590602001918460018302840111640100000000831117156109ec57600080fd5b91908080601f016020809104026020016040519081016040528093929190818152602001838380828437600081840152601f19601f82011690508083019250505050505050919291929080359060200190929190505050611adb565b005b610b0d60048036036040811015610a6057600080fd5b8101908080359060200190640100000000811115610a7d57600080fd5b820183602082011115610a8f57600080fd5b80359060200191846001830284011164010000000083111715610ab157600080fd5b91908080601f016020809104026020016040519081016040528093929190818152602001838380828437600081840152601f19601f82011690508083019250505050505050919291929080359060200190929190505050611caa565b005b610b17611e79565b6040518080602001828103825283818151815260200191508051906020019080838360005b83811015610b57578082015181840152602081019050610b3c565b50505050905090810190601f168015610b845780820380516001836020036101000a031916815260200191505b509250505060405180910390f35b610c4b60048036036020811015610ba857600080fd5b8101908080359060200190640100000000811115610bc557600080fd5b820183602082011115610bd757600080fd5b80359060200191846001830284011164010000000083111715610bf957600080fd5b91908080601f016020809104026020016040519081016040528093929190818152602001838380828437600081840152601f19601f820116905080830192505050505050509192919290505050611f17565b005b610d1060048036036040811015610c6357600080fd5b8101908080359060200190640100000000811115610c8057600080fd5b820183602082011115610c9257600080fd5b80359060200191846001830284011164010000000083111715610cb457600080fd5b91908080601f016020809104026020016040519081016040528093929190818152602001838380828437600081840152601f19601f8201169050808301925050505050505091929192908035906020019092919050505061200f565b005b610d1a6121de565b6040518082815260200191505060405180910390f35b73__libraryString_________________________6389c19ddb83836040518363ffffffff1660e01b8152600401808060200180602001838103835285818151815260200191508051906020019080838360005b83811015610d9f578082015181840152602081019050610d84565b50505050905090810190601f168015610dcc5780820380516001836020036101000a031916815260200191505b50838103825284818151815260200191508051906020019080838360005b83811015610e05578082015181840152602081019050610dea565b50505050905090810190601f168015610e325780820380516001836020036101000a031916815260200191505b5094505050505060006040518083038186803b158015610e5157600080fd5b505af4158015610e65573d6000803e3d6000fd5b505050506040513d6000823e3d601f19601f820116820180604052506020811015610e8f57600080fd5b8101908080516040519392919084640100000000821115610eaf57600080fd5b83820191506020820185811115610ec557600080fd5b8251866001820283011164010000000082111715610ee257600080fd5b8083526020830192505050908051906020019080838360005b83811015610f16578082015181840152602081019050610efb565b50505050905090810190601f168015610f435780820380516001836020036101000a031916815260200191505b5060405250505060009080519060200190610f5f9291906121e4565b505050565b600073__libraryStringNonAssembly______________6391aff8bb84846040518363ffffffff1660e01b8152600401808060200180602001838103835285818151815260200191508051906020019080838360005b83811015610fd5578082015181840152602081019050610fba565b50505050905090810190601f1680156110025780820380516001836020036101000a031916815260200191505b50838103825284818151815260200191508051906020019080838360005b8381101561103b578082015181840152602081019050611020565b50505050905090810190601f1680156110685780820380516001836020036101000a031916815260200191505b5094505050505060206040518083038186803b15801561108757600080fd5b505af415801561109b573d6000803e3d6000fd5b505050506040513d60208110156110b157600080fd5b8101908080519060200190929190505050905092915050565b73__libraryStringNonAssembly______________6365d4a0a38484846040518463ffffffff1660e01b81526004018080602001848152602001838152602001828103825285818151815260200191508051906020019080838360005b83811015611142578082015181840152602081019050611127565b50505050905090810190601f16801561116f5780820380516001836020036101000a031916815260200191505b5094505050505060006040518083038186803b15801561118e57600080fd5b505af41580156111a2573d6000803e3d6000fd5b505050506040513d6000823e3d601f19601f8201168201806040525060208110156111cc57600080fd5b81019080805160405193929190846401000000008211156111ec57600080fd5b8382019150602082018581111561120257600080fd5b825186600182028301116401000000008211171561121f57600080fd5b8083526020830192505050908051906020019080838360005b83811015611253578082015181840152602081019050611238565b50505050905090810190601f1680156112805780820380516001836020036101000a031916815260200191505b506040525050506000908051906020019061129c9291906121e4565b50505050565b73__libraryString_________________________6365d4a0a38484846040518463ffffffff1660e01b81526004018080602001848152602001838152602001828103825285818151815260200191508051906020019080838360005b8381101561131a5780820151818401526020810190506112ff565b50505050905090810190601f1680156113475780820380516001836020036101000a031916815260200191505b5094505050505060006040518083038186803b15801561136657600080fd5b505af415801561137a573d6000803e3d6000fd5b505050506040513d6000823e3d601f19601f8201168201806040525060208110156113a457600080fd5b81019080805160405193929190846401000000008211156113c457600080fd5b838201915060208201858111156113da57600080fd5b82518660018202830111640100000000821117156113f757600080fd5b8083526020830192505050908051906020019080838360005b8381101561142b578082015181840152602081019050611410565b50505050905090810190601f1680156114585780820380516001836020036101000a031916815260200191505b50604052505050600090805190602001906114749291906121e4565b50505050565b73__libraryStringNonAssembly______________634f7158b983836040518363ffffffff1660e01b81526004018080602001838152602001828103825284818151815260200191508051906020019080838360005b838110156114eb5780820151818401526020810190506114d0565b50505050905090810190601f1680156115185780820380516001836020036101000a031916815260200191505b50935050505060006040518083038186803b15801561153657600080fd5b505af415801561154a573d6000803e3d6000fd5b505050506040513d6000823e3d601f19601f82011682018060405250602081101561157457600080fd5b810190808051604051939291908464010000000082111561159457600080fd5b838201915060208201858111156115aa57600080fd5b82518660018202830111640100000000821117156115c757600080fd5b8083526020830192505050908051906020019080838360005b838110156115fb5780820151818401526020810190506115e0565b50505050905090810190601f1680156116285780820380516001836020036101000a031916815260200191505b50604052505050600090805190602001906116449291906121e4565b505050565b73__libraryStringNonAssembly______________6389c19ddb83836040518363ffffffff1660e01b8152600401808060200180602001838103835285818151815260200191508051906020019080838360005b838110156116b857808201518184015260208101905061169d565b50505050905090810190601f1680156116e55780820380516001836020036101000a031916815260200191505b50838103825284818151815260200191508051906020019080838360005b8381101561171e578082015181840152602081019050611703565b50505050905090810190601f16801561174b5780820380516001836020036101000a031916815260200191505b5094505050505060006040518083038186803b15801561176a57600080fd5b505af415801561177e573d6000803e3d6000fd5b505050506040513d6000823e3d601f19601f8201168201806040525060208110156117a857600080fd5b81019080805160405193929190846401000000008211156117c857600080fd5b838201915060208201858111156117de57600080fd5b82518660018202830111640100000000821117156117fb57600080fd5b8083526020830192505050908051906020019080838360005b8381101561182f578082015181840152602081019050611814565b50505050905090810190601f16801561185c5780820380516001836020036101000a031916815260200191505b50604052505050600090805190602001906118789291906121e4565b505050565b73__libraryString_________________________63436a66e7826040518263ffffffff1660e01b81526004018080602001828103825283818151815260200191508051906020019080838360005b838110156118e75780820151818401526020810190506118cc565b50505050905090810190601f1680156119145780820380516001836020036101000a031916815260200191505b509250505060206040518083038186803b15801561193157600080fd5b505af4158015611945573d6000803e3d6000fd5b505050506040513d602081101561195b57600080fd5b810190808051906020019092919050505060018190555050565b600073__libraryString_________________________6391aff8bb84846040518363ffffffff1660e01b8152600401808060200180602001838103835285818151815260200191508051906020019080838360005b838110156119e65780820151818401526020810190506119cb565b50505050905090810190601f168015611a135780820380516001836020036101000a031916815260200191505b50838103825284818151815260200191508051906020019080838360005b83811015611a4c578082015181840152602081019050611a31565b50505050905090810190601f168015611a795780820380516001836020036101000a031916815260200191505b5094505050505060206040518083038186803b158015611a9857600080fd5b505af4158015611aac573d6000803e3d6000fd5b505050506040513d6020811015611ac257600080fd5b8101908080519060200190929190505050905092915050565b73__libraryString_________________________638b15051683836040518363ffffffff1660e01b81526004018080602001838152602001828103825284818151815260200191508051906020019080838360005b83811015611b4c578082015181840152602081019050611b31565b50505050905090810190601f168015611b795780820380516001836020036101000a031916815260200191505b50935050505060006040518083038186803b158015611b9757600080fd5b505af4158015611bab573d6000803e3d6000fd5b505050506040513d6000823e3d601f19601f820116820180604052506020811015611bd557600080fd5b8101908080516040519392919084640100000000821115611bf557600080fd5b83820191506020820185811115611c0b57600080fd5b8251866001820283011164010000000082111715611c2857600080fd5b8083526020830192505050908051906020019080838360005b83811015611c5c578082015181840152602081019050611c41565b50505050905090810190601f168015611c895780820380516001836020036101000a031916815260200191505b5060405250505060009080519060200190611ca59291906121e4565b505050565b73__libraryString_________________________634f7158b983836040518363ffffffff1660e01b81526004018080602001838152602001828103825284818151815260200191508051906020019080838360005b83811015611d1b578082015181840152602081019050611d00565b50505050905090810190601f168015611d485780820380516001836020036101000a031916815260200191505b50935050505060006040518083038186803b158015611d6657600080fd5b505af4158015611d7a573d6000803e3d6000fd5b505050506040513d6000823e3d601f19601f820116820180604052506020811015611da457600080fd5b8101908080516040519392919084640100000000821115611dc457600080fd5b83820191506020820185811115611dda57600080fd5b8251866001820283011164010000000082111715611df757600080fd5b8083526020830192505050908051906020019080838360005b83811015611e2b578082015181840152602081019050611e10565b50505050905090810190601f168015611e585780820380516001836020036101000a031916815260200191505b5060405250505060009080519060200190611e749291906121e4565b505050565b60008054600181600116156101000203166002900480601f016020809104026020016040519081016040528092919081815260200182805460018160011615610100020316600290048015611f0f5780601f10611ee457610100808354040283529160200191611f0f565b820191906000526020600020905b815481529060010190602001808311611ef257829003601f168201915b505050505081565b73__libraryStringNonAssembly______________63436a66e7826040518263ffffffff1660e01b81526004018080602001828103825283818151815260200191508051906020019080838360005b83811015611f81578082015181840152602081019050611f66565b50505050905090810190601f168015611fae5780820380516001836020036101000a031916815260200191505b509250505060206040518083038186803b158015611fcb57600080fd5b505af4158015611fdf573d6000803e3d6000fd5b505050506040513d6020811015611ff557600080fd5b810190808051906020019092919050505060018190555050565b73__libraryStringNonAssembly______________638b15051683836040518363ffffffff1660e01b81526004018080602001838152602001828103825284818151815260200191508051906020019080838360005b83811015612080578082015181840152602081019050612065565b50505050905090810190601f1680156120ad5780820380516001836020036101000a031916815260200191505b50935050505060006040518083038186803b1580156120cb57600080fd5b505af41580156120df573d6000803e3d6000fd5b505050506040513d6000823e3d601f19601f82011682018060405250602081101561210957600080fd5b810190808051604051939291908464010000000082111561212957600080fd5b8382019150602082018581111561213f57600080fd5b825186600182028301116401000000008211171561215c57600080fd5b8083526020830192505050908051906020019080838360005b83811015612190578082015181840152602081019050612175565b50505050905090810190601f1680156121bd5780820380516001836020036101000a031916815260200191505b50604052505050600090805190602001906121d99291906121e4565b505050565b60015481565b828054600181600116156101000203166002900490600052602060002090601f016020900481019282601f1061222557805160ff1916838001178555612253565b82800160010185558215612253579182015b82811115612252578251825591602001919060010190612237565b5b5090506122609190612264565b5090565b61228691905b8082111561228257600081600090555060010161226a565b5090565b9056fea265627a7a7231582039ccfd0264a677fddfe68cd3c7cc597df5f86c99f61e8d9635ae0eb38617e58c64736f6c63430005100032",
  "source": "pragma solidity ^0.5.16;\nimport \"./libraryString.sol\";\nimport \"./libraryStringNonAssembly.sol\";\n\n\ncontract Contract {\n    string public str;\n    uint256 public strLength;\n\n    function concatAssembly(string memory a, string memory b) public {\n        str = libraryString.concat(a, b);\n    }\n\n    function concatNonAssembly(string memory a, string memory b) public {\n        str = libraryStringNonAssembly.concat(a, b);\n    }\n\n    function charAtAssembly(string memory a, uint256 index) public {\n        str = libraryString.charAt(a, index);\n    }\n\n    function charAtNonAssembly(string memory a, uint256 index) public {\n        str = libraryStringNonAssembly.charAt(a, index);\n    }\n\n    function sliceAssembly(\n        string memory a,\n        uint256 startIndex,\n        uint256 endIndex\n    ) public {\n        str = libraryString.slice(a, startIndex, endIndex);\n    }\n\n    function sliceNonAssembly(\n        string memory a,\n        uint256 startIndex,\n        uint256 endIndex\n    ) public {\n        str = libraryStringNonAssembly.slice(a, startIndex, endIndex);\n    }\n\n    function sliceAssembly(string memory a, uint256 index) public {\n        str = libraryString.slice(a, index);\n    }\n\n    function sliceNonAssembly(string memory a, uint256 index) public {\n        str = libraryStringNonAssembly.slice(a, index);\n    }\n\n    function lengthAssembly(string memory a) public {\n        strLength = libraryString.length(a);\n    }\n\n    function lengthNonAssembly(string memory a) public {\n        strLength = libraryStringNonAssembly.length(a);\n    }\n\n    function matchAssembly(string memory a, string memory b)\n        public\n        pure\n        returns (bool)\n    {\n        return libraryString.matchStrings(a, b);\n    }\n\n    function matchNonAssembly(string memory a, string memory b)\n        public\n        pure\n        returns (bool)\n    {\n        return libraryStringNonAssembly.matchStrings(a, b);\n    }\n}\n",
  "sourcePath": "/home/leo/Documents/BlockChain_Development/Advanced_Smart_Contract/stringLibrary/contracts/Contract.sol",
  "compiler": {
    "name": "solc",
    "version": "0.5.16+commit.9c3226ce.Emscripten.clang"
  },
  "schemaVersion": "3.0.23",
  "updatedAt": "2020-03-29T00:42:16.792Z",
  "networkType": "ethereum",
  "devdoc": {
    "methods": {}
  },
  "userdoc": {
    "methods": {}
  }
}