{
  "contractName": "libraryString",
  "abi": [
    {
      "constant": true,
      "inputs": [
        {
          "internalType": "string",
          "name": "input",
          "type": "string"
        },
        {
          "internalType": "uint256",
          "name": "index",
          "type": "uint256"
        }
      ],
      "name": "charAt",
      "outputs": [
        {
          "internalType": "string",
          "name": "output",
          "type": "string"
        }
      ],
      "payable": false,
      "stateMutability": "pure",
      "type": "function"
    },
    {
      "constant": true,
      "inputs": [
        {
          "internalType": "string",
          "name": "input1",
          "type": "string"
        },
        {
          "internalType": "string",
          "name": "input2",
          "type": "string"
        }
      ],
      "name": "concat",
      "outputs": [
        {
          "internalType": "string",
          "name": "output",
          "type": "string"
        }
      ],
      "payable": false,
      "stateMutability": "pure",
      "type": "function"
    },
    {
      "constant": true,
      "inputs": [
        {
          "internalType": "string",
          "name": "input1",
          "type": "string"
        },
        {
          "internalType": "string",
          "name": "input2",
          "type": "string"
        }
      ],
      "name": "matchStrings",
      "outputs": [
        {
          "internalType": "bool",
          "name": "",
          "type": "bool"
        }
      ],
      "payable": false,
      "stateMutability": "pure",
      "type": "function"
    },
    {
      "constant": true,
      "inputs": [
        {
          "internalType": "string",
          "name": "input",
          "type": "string"
        },
        {
          "internalType": "uint256",
          "name": "startIndex",
          "type": "uint256"
        },
        {
          "internalType": "uint256",
          "name": "endIndex",
          "type": "uint256"
        }
      ],
      "name": "slice",
      "outputs": [
        {
          "internalType": "string",
          "name": "output",
          "type": "string"
        }
      ],
      "payable": false,
      "stateMutability": "pure",
      "type": "function"
    },
    {
      "constant": true,
      "inputs": [
        {
          "internalType": "string",
          "name": "input",
          "type": "string"
        },
        {
          "internalType": "uint256",
          "name": "index",
          "type": "uint256"
        }
      ],
      "name": "slice",
      "outputs": [
        {
          "internalType": "string",
          "name": "output",
          "type": "string"
        }
      ],
      "payable": false,
      "stateMutability": "pure",
      "type": "function"
    },
    {
      "constant": true,
      "inputs": [
        {
          "internalType": "string",
          "name": "input",
          "type": "string"
        }
      ],
      "name": "length",
      "outputs": [
        {
          "internalType": "uint256",
          "name": "strlength",
          "type": "uint256"
        }
      ],
      "payable": false,
      "stateMutability": "pure",
      "type": "function"
    }
  ],
  "bytecode": "0x610ac2610026600b82828239805160001a60731461001957fe5b30600052607381538281f3fe730000000000000000000000000000000000000000301460806040526004361061006c5760003560e01c8063436a66e7146100715780634f7158b91461014057806365d4a0a31461027e57806389c19ddb146103c65780638b1505161461059157806391aff8bb146106cf575b600080fd5b61012a6004803603602081101561008757600080fd5b81019080803590602001906401000000008111156100a457600080fd5b8201836020820111156100b657600080fd5b803590602001918460018302840111640100000000831117156100d857600080fd5b91908080601f016020809104026020016040519081016040528093929190818152602001838380828437600081840152601f19601f820116905080830192505050505050509192919290505050610839565b6040518082815260200191505060405180910390f35b6102036004803603604081101561015657600080fd5b810190808035906020019064010000000081111561017357600080fd5b82018360208201111561018557600080fd5b803590602001918460018302840111640100000000831117156101a757600080fd5b91908080601f016020809104026020016040519081016040528093929190818152602001838380828437600081840152601f19601f82011690508083019250505050505050919291929080359060200190929190505050610844565b6040518080602001828103825283818151815260200191508051906020019080838360005b83811015610243578082015181840152602081019050610228565b50505050905090810190601f1680156102705780820380516001836020036101000a031916815260200191505b509250505060405180910390f35b61034b6004803603606081101561029457600080fd5b81019080803590602001906401000000008111156102b157600080fd5b8201836020820111156102c357600080fd5b803590602001918460018302840111640100000000831117156102e557600080fd5b91908080601f016020809104026020016040519081016040528093929190818152602001838380828437600081840152601f19601f82011690508083019250505050505050919291929080359060200190929190803590602001909291905050506108af565b6040518080602001828103825283818151815260200191508051906020019080838360005b8381101561038b578082015181840152602081019050610370565b50505050905090810190601f1680156103b85780820380516001836020036101000a031916815260200191505b509250505060405180910390f35b610516600480360360408110156103dc57600080fd5b81019080803590602001906401000000008111156103f957600080fd5b82018360208201111561040b57600080fd5b8035906020019184600183028401116401000000008311171561042d57600080fd5b91908080601f016020809104026020016040519081016040528093929190818152602001838380828437600081840152601f19601f8201169050808301925050505050505091929192908035906020019064010000000081111561049057600080fd5b8201836020820111156104a257600080fd5b803590602001918460018302840111640100000000831117156104c457600080fd5b91908080601f016020809104026020016040519081016040528093929190818152602001838380828437600081840152601f19601f820116905080830192505050505050509192919290505050610921565b6040518080602001828103825283818151815260200191508051906020019080838360005b8381101561055657808201518184015260208101905061053b565b50505050905090810190601f1680156105835780820380516001836020036101000a031916815260200191505b509250505060405180910390f35b610654600480360360408110156105a757600080fd5b81019080803590602001906401000000008111156105c457600080fd5b8201836020820111156105d657600080fd5b803590602001918460018302840111640100000000831117156105f857600080fd5b91908080601f016020809104026020016040519081016040528093929190818152602001838380828437600081840152601f19601f8201169050808301925050505050505091929192908035906020019092919050505061097f565b6040518080602001828103825283818151815260200191508051906020019080838360005b83811015610694578082015181840152602081019050610679565b50505050905090810190601f1680156106c15780820380516001836020036101000a031916815260200191505b509250505060405180910390f35b61081f600480360360408110156106e557600080fd5b810190808035906020019064010000000081111561070257600080fd5b82018360208201111561071457600080fd5b8035906020019184600183028401116401000000008311171561073657600080fd5b91908080601f016020809104026020016040519081016040528093929190818152602001838380828437600081840152601f19601f8201169050808301925050505050505091929192908035906020019064010000000081111561079957600080fd5b8201836020820111156107ab57600080fd5b803590602001918460018302840111640100000000831117156107cd57600080fd5b91908080601f016020809104026020016040519081016040528093929190818152602001838380828437600081840152601f19601f82011690508083019250505050505050919291929050505061099e565b604051808215151515815260200191505060405180910390f35b600081519050919050565b6060610869565b6000604080519150601f19601f602060010101168201815250919050565b8251602081111561087957600080fd5b6001810383111561088957600080fd5b6108928161084b565b9150600182528260a0015160f81c60f81b60208301525092915050565b6060818311156108be57600080fd5b6108e0565b6000604080519150601f19601f6020850101168201815250919050565b835160208111156108f057600080fd5b808311156108fd57600080fd5b610906816108c3565b91508383038083528460a00151602084015250509392505050565b6060610945565b6000604080519150601f19601f6020850101168201815250919050565b8151835101602081111561095857600080fd5b61096181610928565b915080825260e05184516008021c60a0510160208301525092915050565b60606000835190506109928484836108af565b91508191505092915050565b6000816040516020018082805190602001908083835b602083106109d757805182526020820191506020810190506020830392506109b4565b6001836020036101000a03801982511681845116808217855250505050505090500191505060405160208183030381529060405280519060200120836040516020018082805190602001908083835b60208310610a495780518252602082019150602081019050602083039250610a26565b6001836020036101000a038019825116818451168082178552505050505050905001915050604051602081830303815290604052805190602001201490509291505056fea265627a7a723158209316d1af992f7e811e03f11f27181cd20a009b0091584d674c130f78f0d7910d64736f6c63430005100032",
  "source": "pragma solidity ^0.5.16;\n\n\nlibrary libraryString {\n    function charAt(string memory input, uint256 index)\n        public\n        pure\n        returns (string memory output)\n    {\n        assembly {\n            function allocate(length) -> pos {\n                let freePointer := 0x40\n                pos := mload(freePointer)\n                mstore(\n                    freePointer,\n                    add(pos, and(add(add(1, 0x20), 0x1f), not(0x1f)))\n                )\n            }\n\n            let dataSize := mload(input) // 32 bytes\n            if gt(dataSize, 32) {\n                revert(0, 0)\n            }\n            if gt(index, sub(dataSize, 1)) {\n                revert(0, 0)\n            }\n            output := allocate(dataSize)\n            mstore(output, 1)\n            mstore(\n                add(output, 0x20),\n                shl(0xf8, shr(0xf8, mload(add(0xa0, index))))\n            )\n        }\n    }\n\n    function concat(string memory input1, string memory input2)\n        public\n        pure\n        returns (string memory output)\n    {\n        assembly {\n            function allocate(length) -> pos {\n                let freePointer := 0x40\n                pos := mload(freePointer)\n                mstore(\n                    freePointer,\n                    add(pos, and(add(add(length, 0x20), 0x1f), not(0x1f)))\n                )\n            }\n\n            let dataSize := add(mload(input1), mload(input2)) // 32 bytes\n            if gt(dataSize, 32) {\n                revert(0, 0)\n            }\n            output := allocate(dataSize)\n            mstore(output, dataSize)\n            mstore(\n                add(output, 0x20),\n                add(mload(0xa0), shr(mul(8, mload(input1)), mload(0xe0)))\n            )\n        }\n    }\n\n    function matchStrings(string memory input1, string memory input2)\n        public\n        pure\n        returns (bool)\n    {\n        return (keccak256(abi.encodePacked((input1))) ==\n            keccak256(abi.encodePacked((input2))));\n    }\n\n    function slice(string memory input, uint256 startIndex, uint256 endIndex)\n        public\n        pure\n        returns (string memory output)\n    {\n        assembly {\n            if gt(startIndex, endIndex) {\n                revert(0, 0)\n            }\n            function allocate(length) -> pos {\n                let freePointer := 0x40\n                pos := mload(freePointer)\n                mstore(\n                    freePointer,\n                    add(pos, and(add(add(length, 0x20), 0x1f), not(0x1f)))\n                )\n            }\n            let dataSize := mload(input)\n            if gt(dataSize, 32) {\n                revert(0, 0)\n            }\n            if gt(endIndex, dataSize) {\n                revert(0, 0)\n            }\n            output := allocate(dataSize)\n            let size := sub(endIndex, startIndex)\n            mstore(output, size)\n            mstore(add(output, 0x20), mload(add(0xa0, startIndex)))\n        }\n    }\n\n    function slice(string memory input, uint256 index)\n        public\n        pure\n        returns (string memory output)\n    {\n        uint256 inputLength;\n        assembly {\n            inputLength := mload(input)\n        }\n        output = slice(input, index, inputLength);\n        return output;\n    }\n\n    function length(string memory input)\n        public\n        pure\n        returns (uint256 strlength)\n    {\n        assembly {\n            strlength := mload(input)\n        }\n    }\n}\n",
  "sourcePath": "/home/leo/Documents/BlockChain_Development/Advanced_Smart_Contract/stringLibrary/contracts/libraryString.sol",
  "compiler": {
    "name": "solc",
    "version": "0.5.16+commit.9c3226ce.Emscripten.clang"
  },
  "schemaVersion": "3.0.23",
  "updatedAt": "2020-03-29T00:42:16.787Z",
  "networkType": "ethereum",
  "devdoc": {
    "methods": {}
  },
  "userdoc": {
    "methods": {}
  }
}