{
  "contractName": "libraryStringNonAssembly",
  "abi": [
    {
      "constant": true,
      "inputs": [
        {
          "internalType": "string",
          "name": "input",
          "type": "string"
        },
        {
          "internalType": "uint256",
          "name": "index",
          "type": "uint256"
        }
      ],
      "name": "charAt",
      "outputs": [
        {
          "internalType": "string",
          "name": "",
          "type": "string"
        }
      ],
      "payable": false,
      "stateMutability": "pure",
      "type": "function"
    },
    {
      "constant": true,
      "inputs": [
        {
          "internalType": "string",
          "name": "input1",
          "type": "string"
        },
        {
          "internalType": "string",
          "name": "input2",
          "type": "string"
        }
      ],
      "name": "concat",
      "outputs": [
        {
          "internalType": "string",
          "name": "",
          "type": "string"
        }
      ],
      "payable": false,
      "stateMutability": "pure",
      "type": "function"
    },
    {
      "constant": true,
      "inputs": [
        {
          "internalType": "string",
          "name": "input1",
          "type": "string"
        },
        {
          "internalType": "string",
          "name": "input2",
          "type": "string"
        }
      ],
      "name": "matchStrings",
      "outputs": [
        {
          "internalType": "bool",
          "name": "",
          "type": "bool"
        }
      ],
      "payable": false,
      "stateMutability": "pure",
      "type": "function"
    },
    {
      "constant": true,
      "inputs": [
        {
          "internalType": "string",
          "name": "input",
          "type": "string"
        },
        {
          "internalType": "uint256",
          "name": "startIndex",
          "type": "uint256"
        },
        {
          "internalType": "uint256",
          "name": "endIndex",
          "type": "uint256"
        }
      ],
      "name": "slice",
      "outputs": [
        {
          "internalType": "string",
          "name": "",
          "type": "string"
        }
      ],
      "payable": false,
      "stateMutability": "pure",
      "type": "function"
    },
    {
      "constant": true,
      "inputs": [
        {
          "internalType": "string",
          "name": "input",
          "type": "string"
        },
        {
          "internalType": "uint256",
          "name": "index",
          "type": "uint256"
        }
      ],
      "name": "slice",
      "outputs": [
        {
          "internalType": "string",
          "name": "",
          "type": "string"
        }
      ],
      "payable": false,
      "stateMutability": "pure",
      "type": "function"
    },
    {
      "constant": true,
      "inputs": [
        {
          "internalType": "string",
          "name": "input",
          "type": "string"
        }
      ],
      "name": "length",
      "outputs": [
        {
          "internalType": "uint256",
          "name": "",
          "type": "uint256"
        }
      ],
      "payable": false,
      "stateMutability": "pure",
      "type": "function"
    }
  ],
  "bytecode": "0x610db9610026600b82828239805160001a60731461001957fe5b30600052607381538281f3fe730000000000000000000000000000000000000000301460806040526004361061006c5760003560e01c8063436a66e7146100715780634f7158b91461014057806365d4a0a31461027e57806389c19ddb146103c65780638b1505161461059157806391aff8bb146106cf575b600080fd5b61012a6004803603602081101561008757600080fd5b81019080803590602001906401000000008111156100a457600080fd5b8201836020820111156100b657600080fd5b803590602001918460018302840111640100000000831117156100d857600080fd5b91908080601f016020809104026020016040519081016040528093929190818152602001838380828437600081840152601f19601f820116905080830192505050505050509192919290505050610839565b6040518082815260200191505060405180910390f35b6102036004803603604081101561015657600080fd5b810190808035906020019064010000000081111561017357600080fd5b82018360208201111561018557600080fd5b803590602001918460018302840111640100000000831117156101a757600080fd5b91908080601f016020809104026020016040519081016040528093929190818152602001838380828437600081840152601f19601f8201169050808301925050505050505091929192908035906020019092919050505061084a565b6040518080602001828103825283818151815260200191508051906020019080838360005b83811015610243578082015181840152602081019050610228565b50505050905090810190601f1680156102705780820380516001836020036101000a031916815260200191505b509250505060405180910390f35b61034b6004803603606081101561029457600080fd5b81019080803590602001906401000000008111156102b157600080fd5b8201836020820111156102c357600080fd5b803590602001918460018302840111640100000000831117156102e557600080fd5b91908080601f016020809104026020016040519081016040528093929190818152602001838380828437600081840152601f19601f8201169050808301925050505050505091929192908035906020019092919080359060200190929190505050610967565b6040518080602001828103825283818151815260200191508051906020019080838360005b8381101561038b578082015181840152602081019050610370565b50505050905090810190601f1680156103b85780820380516001836020036101000a031916815260200191505b509250505060405180910390f35b610516600480360360408110156103dc57600080fd5b81019080803590602001906401000000008111156103f957600080fd5b82018360208201111561040b57600080fd5b8035906020019184600183028401116401000000008311171561042d57600080fd5b91908080601f016020809104026020016040519081016040528093929190818152602001838380828437600081840152601f19601f8201169050808301925050505050505091929192908035906020019064010000000081111561049057600080fd5b8201836020820111156104a257600080fd5b803590602001918460018302840111640100000000831117156104c457600080fd5b91908080601f016020809104026020016040519081016040528093929190818152602001838380828437600081840152601f19601f820116905080830192505050505050509192919290505050610ae3565b6040518080602001828103825283818151815260200191508051906020019080838360005b8381101561055657808201518184015260208101905061053b565b50505050905090810190601f1680156105835780820380516001836020036101000a031916815260200191505b509250505060405180910390f35b610654600480360360408110156105a757600080fd5b81019080803590602001906401000000008111156105c457600080fd5b8201836020820111156105d657600080fd5b803590602001918460018302840111640100000000831117156105f857600080fd5b91908080601f016020809104026020016040519081016040528093929190818152602001838380828437600081840152601f19601f82011690508083019250505050505050919291929080359060200190929190505050610bab565b6040518080602001828103825283818151815260200191508051906020019080838360005b83811015610694578082015181840152602081019050610679565b50505050905090810190601f1680156106c15780820380516001836020036101000a031916815260200191505b509250505060405180910390f35b61081f600480360360408110156106e557600080fd5b810190808035906020019064010000000081111561070257600080fd5b82018360208201111561071457600080fd5b8035906020019184600183028401116401000000008311171561073657600080fd5b91908080601f016020809104026020016040519081016040528093929190818152602001838380828437600081840152601f19601f8201169050808301925050505050505091929192908035906020019064010000000081111561079957600080fd5b8201836020820111156107ab57600080fd5b803590602001918460018302840111640100000000831117156107cd57600080fd5b91908080601f016020809104026020016040519081016040528093929190818152602001838380828437600081840152601f19601f820116905080830192505050505050509192919290505050610c1f565b604051808215151515815260200191505060405180910390f35b600060608290508051915050919050565b60608083905060018151038311156108ca576040517f08c379a00000000000000000000000000000000000000000000000000000000081526004018080602001828103825260208152602001807f696e6465782063616e6e6f74206265206d6f7265207468616e206c656e67746881525060200191505060405180910390fd5b606060016040519080825280601f01601f1916602001820160405280156109005781602001600182028038833980820191505090505b509050606081905082858151811061091457fe5b602001015160f81c60f81b8160008151811061092c57fe5b60200101907effffffffffffffffffffffffffffffffffffffffffffffffffffffffffffff1916908160001a90535080935050505092915050565b6060808490508284106109c5576040517f08c379a0000000000000000000000000000000000000000000000000000000008152600401808060200182810382526027815260200180610d0f6027913960400191505060405180910390fd5b8051831115610a1f576040517f08c379a0000000000000000000000000000000000000000000000000000000008152600401808060200182810382526029815260200180610d5c6029913960400191505060405180910390fd5b60608484036040519080825280601f01601f191660200182016040528015610a565781602001600182028038833980820191505090505b50905060608190506000808790505b86811015610ad457848181518110610a7957fe5b602001015160f81c60f81b838381518110610a9057fe5b60200101907effffffffffffffffffffffffffffffffffffffffffffffffffffffffffffff1916908160001a90535081806001019250508080600101915050610a65565b50819450505050509392505050565b606082826040516020018083805190602001908083835b60208310610b1d5780518252602082019150602081019050602083039250610afa565b6001836020036101000a03801982511681845116808217855250505050505090500182805190602001908083835b60208310610b6e5780518252602082019150602081019050602083039250610b4b565b6001836020036101000a03801982511681845116808217855250505050505090500192505050604051602081830303815290604052905092915050565b60608083905080518310610c0a576040517f08c379a0000000000000000000000000000000000000000000000000000000008152600401808060200182810382526026815260200180610d366026913960400191505060405180910390fd5b610c1684848351610967565b91505092915050565b6000816040516020018082805190602001908083835b60208310610c585780518252602082019150602081019050602083039250610c35565b6001836020036101000a03801982511681845116808217855250505050505090500191505060405160208183030381529060405280519060200120836040516020018082805190602001908083835b60208310610cca5780518252602082019150602081019050602083039250610ca7565b6001836020036101000a038019825116818451168082178552505050505050905001915050604051602081830303815290604052805190602001201490509291505056fe7374617274496e6465782063616e6e6f74206265206d6f7265207468616e20656e64496e646578696e6465782063616e6e6f74206265206d6f7265207468616e20696e707574206c656e677468656e64496e6465782063616e6e6f74206265206d6f7265207468616e20696e707574206c656e677468a265627a7a72315820339e5fa4ab6116d9fdb8c5961f85491d60b2b2e086433004d08f9b52848f255a64736f6c63430005100032",
  "source": "pragma solidity ^0.5.16;\n\n\nlibrary libraryStringNonAssembly {\n    function charAt(string memory input, uint256 index)\n        public\n        pure\n        returns (string memory)\n    {\n        bytes memory _input = bytes(input);\n        require(\n            index <= (_input.length - 1),\n            \"index cannot be more than length\"\n        );\n        string memory _output = new string(1);\n        bytes memory output = bytes(_output);\n        output[0] = _input[index];\n        return string(output);\n    }\n\n    function concat(string memory input1, string memory input2)\n        public\n        pure\n        returns (string memory)\n    {\n        return string(abi.encodePacked(input1, input2));\n    }\n\n    function matchStrings(string memory input1, string memory input2)\n        public\n        pure\n        returns (bool)\n    {\n        return (keccak256(abi.encodePacked((input1))) ==\n            keccak256(abi.encodePacked((input2))));\n    }\n\n    function slice(string memory input, uint256 startIndex, uint256 endIndex)\n        public\n        pure\n        returns (string memory)\n    {\n        bytes memory _input = bytes(input);\n        require(\n            startIndex < endIndex,\n            \"startIndex cannot be more than endIndex\"\n        );\n        require(\n            endIndex <= _input.length,\n            \"endIndex cannot be more than input length\"\n        );\n        string memory _output = new string(endIndex - startIndex);\n        bytes memory output = bytes(_output);\n        uint256 index;\n        for (uint256 i = startIndex; i < endIndex; i++) {\n            output[index] = _input[i];\n            index++;\n        }\n        return string(output);\n    }\n\n    function slice(string memory input, uint256 index)\n        public\n        pure\n        returns (string memory)\n    {\n        bytes memory _input = bytes(input);\n        require(\n            index < _input.length,\n            \"index cannot be more than input length\"\n        );\n        return slice(input, index, _input.length);\n    }\n\n    function length(string memory input) public pure returns (uint256) {\n        bytes memory _input = bytes(input);\n        return _input.length;\n    }\n}\n",
  "sourcePath": "/home/leo/Documents/BlockChain_Development/Advanced_Smart_Contract/stringLibrary/contracts/libraryStringNonAssembly.sol",
  "compiler": {
    "name": "solc",
    "version": "0.5.16+commit.9c3226ce.Emscripten.clang"
  },
  "schemaVersion": "3.0.23",
  "updatedAt": "2020-03-29T00:42:16.789Z",
  "networkType": "ethereum",
  "devdoc": {
    "methods": {}
  },
  "userdoc": {
    "methods": {}
  }
}